{
  "contractName": "OwnablePausable",
  "abi": [
    {
      "constant": true,
      "inputs": [],
      "name": "currentPauseLevel",
      "outputs": [
        {
          "name": "",
          "type": "uint8"
        }
      ],
      "payable": false,
      "stateMutability": "view",
      "type": "function"
    },
    {
      "constant": false,
      "inputs": [
        {
          "name": "newPauseLevel",
          "type": "uint8"
        }
      ],
      "name": "setPauseLevel",
      "outputs": [],
      "payable": false,
      "stateMutability": "nonpayable",
      "type": "function"
    },
    {
      "constant": true,
      "inputs": [],
      "name": "owner",
      "outputs": [
        {
          "name": "",
          "type": "address"
        }
      ],
      "payable": false,
      "stateMutability": "view",
      "type": "function"
    },
    {
      "constant": true,
      "inputs": [],
      "name": "isOwner",
      "outputs": [
        {
          "name": "",
          "type": "bool"
        }
      ],
      "payable": false,
      "stateMutability": "view",
      "type": "function"
    },
    {
      "anonymous": false,
      "inputs": [
        {
          "indexed": true,
          "name": "whoChanged",
          "type": "address"
        },
        {
          "indexed": false,
          "name": "pauseLevel",
          "type": "uint8"
        }
      ],
      "name": "PauseLevelChanged",
      "type": "event"
    },
    {
      "anonymous": false,
      "inputs": [
        {
          "indexed": true,
          "name": "previousOwner",
          "type": "address"
        },
        {
          "indexed": true,
          "name": "newOwner",
          "type": "address"
        }
      ],
      "name": "OwnershipTransferred",
      "type": "event"
    },
    {
      "constant": false,
      "inputs": [],
      "name": "renounceOwnership",
      "outputs": [],
      "payable": false,
      "stateMutability": "nonpayable",
      "type": "function"
    },
    {
      "constant": false,
      "inputs": [
        {
          "name": "newOwner",
          "type": "address"
        }
      ],
      "name": "transferOwnership",
      "outputs": [],
      "payable": false,
      "stateMutability": "nonpayable",
      "type": "function"
    }
  ],
  "bytecode": "0x6080604052336000806101000a81548173ffffffffffffffffffffffffffffffffffffffff021916908373ffffffffffffffffffffffffffffffffffffffff1602179055506000809054906101000a900473ffffffffffffffffffffffffffffffffffffffff1673ffffffffffffffffffffffffffffffffffffffff16600073ffffffffffffffffffffffffffffffffffffffff167f8be0079c531659141344cd1fd0a4f28419497f9722a3daafe3b4186f6b6457e060405160405180910390a360008060146101000a81548160ff021916908360028111156100de57fe5b02179055503373ffffffffffffffffffffffffffffffffffffffff167f583c435c465a768c2992e3d30c8d172a9543ffa7151b785c39e00f0468bc4a2c600060149054906101000a900460ff166040518082600281111561013b57fe5b60ff16815260200191505060405180910390a26107fd8061015d6000396000f3fe608060405234801561001057600080fd5b506004361061007f576000357c0100000000000000000000000000000000000000000000000000000000900480635c1245ad14610084578063715018a6146100b05780638b2bbdd4146100ba5780638da5cb5b146100eb5780638f32d59b14610135578063f2fde38b14610157575b600080fd5b61008c61019b565b6040518082600281111561009c57fe5b60ff16815260200191505060405180910390f35b6100b86101ae565b005b6100e9600480360360208110156100d057600080fd5b81019080803560ff169060200190929190505050610292565b005b6100f3610371565b604051808273ffffffffffffffffffffffffffffffffffffffff1673ffffffffffffffffffffffffffffffffffffffff16815260200191505060405180910390f35b61013d61039a565b604051808215151515815260200191505060405180910390f35b6101996004803603602081101561016d57600080fd5b81019080803573ffffffffffffffffffffffffffffffffffffffff1690602001909291905050506103f1565b005b600060149054906101000a900460ff1681565b6101b661039a565b61020b576040517f08c379a000000000000000000000000000000000000000000000000000000000815260040180806020018281038252603f815260200180610755603f913960400191505060405180910390fd5b60028081111561021757fe5b600060149054906101000a900460ff16600281111561023257fe5b10610288576040517f08c379a000000000000000000000000000000000000000000000000000000000815260040180806020018281038252603e815260200180610794603e913960400191505060405180910390fd5b6102906104d7565b565b61029a61039a565b6102ef576040517f08c379a000000000000000000000000000000000000000000000000000000000815260040180806020018281038252603f815260200180610755603f913960400191505060405180910390fd5b3373ffffffffffffffffffffffffffffffffffffffff167f583c435c465a768c2992e3d30c8d172a9543ffa7151b785c39e00f0468bc4a2c826040518082600281111561033857fe5b60ff16815260200191505060405180910390a280600060146101000a81548160ff0219169083600281111561036957fe5b021790555050565b60008060009054906101000a900473ffffffffffffffffffffffffffffffffffffffff16905090565b60008060009054906101000a900473ffffffffffffffffffffffffffffffffffffffff1673ffffffffffffffffffffffffffffffffffffffff163373ffffffffffffffffffffffffffffffffffffffff1614905090565b6103f961039a565b61044e576040517f08c379a000000000000000000000000000000000000000000000000000000000815260040180806020018281038252603f815260200180610755603f913960400191505060405180910390fd5b60028081111561045a57fe5b600060149054906101000a900460ff16600281111561047557fe5b106104cb576040517f08c379a000000000000000000000000000000000000000000000000000000000815260040180806020018281038252603e815260200180610794603e913960400191505060405180910390fd5b6104d4816105f3565b50565b6104df61039a565b610534576040517f08c379a000000000000000000000000000000000000000000000000000000000815260040180806020018281038252603f815260200180610755603f913960400191505060405180910390fd5b600073ffffffffffffffffffffffffffffffffffffffff166000809054906101000a900473ffffffffffffffffffffffffffffffffffffffff1673ffffffffffffffffffffffffffffffffffffffff167f8be0079c531659141344cd1fd0a4f28419497f9722a3daafe3b4186f6b6457e060405160405180910390a360008060006101000a81548173ffffffffffffffffffffffffffffffffffffffff021916908373ffffffffffffffffffffffffffffffffffffffff160217905550565b6105fb61039a565b610650576040517f08c379a000000000000000000000000000000000000000000000000000000000815260040180806020018281038252603f815260200180610755603f913960400191505060405180910390fd5b6106598161065c565b50565b600073ffffffffffffffffffffffffffffffffffffffff168173ffffffffffffffffffffffffffffffffffffffff16141561069657600080fd5b8073ffffffffffffffffffffffffffffffffffffffff166000809054906101000a900473ffffffffffffffffffffffffffffffffffffffff1673ffffffffffffffffffffffffffffffffffffffff167f8be0079c531659141344cd1fd0a4f28419497f9722a3daafe3b4186f6b6457e060405160405180910390a3806000806101000a81548173ffffffffffffffffffffffffffffffffffffffff021916908373ffffffffffffffffffffffffffffffffffffffff1602179055505056fe4f776e61626c652c2033333a204f6e6c792074686520636f6e7472616374206f776e65722063616e20706572666f726d20746869732061637469766974792e5061757361626c652c2032333a2043616e206f6e6c79206578656375746520696620636f6e7472616374206973206e6f7420686172642d7061757365642ea165627a7a723058200ebb8ad7f33636eb8daf4f3e35675fff47de4e981b53da0c87d3822dabe7c6560029",
  "source": "pragma solidity ^0.5.7;\n\nimport \"./Ownable.sol\";\nimport \"./Pausable.sol\";\n\ncontract OwnablePausable is Pausable{\n\n    function renounceOwnership() public onlyOwner hardPausable {\n        super.renounceOwnership();\n    }\n\n    function transferOwnership(address newOwner) public onlyOwner hardPausable {\n        super.transferOwnership(newOwner);\n    }\n\n}",
  "sourcePath": "/home/andrew/b9labs/dapps/remittance/contracts/OwnablePausable.sol",
  "compiler": {
    "name": "solc",
    "version": "0.5.8+commit.23d335f2.Emscripten.clang"
  },
  "schemaVersion": "3.0.3",
  "updatedAt": "2019-05-05T20:32:57.952Z",
  "devdoc": {
    "methods": {
      "isOwner()": {
        "return": "true if `msg.sender` is the owner of the contract."
      },
      "owner()": {
        "return": "the address of the owner."
      }
    }
  },
  "userdoc": {
    "methods": {}
  }
}