{
  "contractName": "Remittance",
  "abi": [
    {
      "constant": true,
      "inputs": [],
      "name": "currentFlatFee",
      "outputs": [
        {
          "name": "",
          "type": "uint256"
        }
      ],
      "payable": false,
      "stateMutability": "view",
      "type": "function"
    },
    {
      "constant": true,
      "inputs": [],
      "name": "currentPauseLevel",
      "outputs": [
        {
          "name": "",
          "type": "uint8"
        }
      ],
      "payable": false,
      "stateMutability": "view",
      "type": "function"
    },
    {
      "constant": false,
      "inputs": [],
      "name": "renounceOwnership",
      "outputs": [],
      "payable": false,
      "stateMutability": "nonpayable",
      "type": "function"
    },
    {
      "constant": true,
      "inputs": [],
      "name": "lockedBalance",
      "outputs": [
        {
          "name": "",
          "type": "uint256"
        }
      ],
      "payable": false,
      "stateMutability": "view",
      "type": "function"
    },
    {
      "constant": true,
      "inputs": [
        {
          "name": "",
          "type": "uint256"
        }
      ],
      "name": "remittanceIdsToHashes",
      "outputs": [
        {
          "name": "",
          "type": "bytes32"
        }
      ],
      "payable": false,
      "stateMutability": "view",
      "type": "function"
    },
    {
      "constant": false,
      "inputs": [
        {
          "name": "newPauseLevel",
          "type": "uint8"
        }
      ],
      "name": "setPauseLevel",
      "outputs": [],
      "payable": false,
      "stateMutability": "nonpayable",
      "type": "function"
    },
    {
      "constant": true,
      "inputs": [],
      "name": "owner",
      "outputs": [
        {
          "name": "",
          "type": "address"
        }
      ],
      "payable": false,
      "stateMutability": "view",
      "type": "function"
    },
    {
      "constant": true,
      "inputs": [],
      "name": "isOwner",
      "outputs": [
        {
          "name": "",
          "type": "bool"
        }
      ],
      "payable": false,
      "stateMutability": "view",
      "type": "function"
    },
    {
      "constant": true,
      "inputs": [
        {
          "name": "",
          "type": "bytes32"
        }
      ],
      "name": "remittances",
      "outputs": [
        {
          "name": "sentAmount",
          "type": "uint256"
        },
        {
          "name": "feeAmount",
          "type": "uint256"
        },
        {
          "name": "sendingParty",
          "type": "address"
        },
        {
          "name": "allowedIntermediary",
          "type": "address"
        },
        {
          "name": "authorizationDblHash1",
          "type": "bytes32"
        },
        {
          "name": "authorizationDblHash2",
          "type": "bytes32"
        },
        {
          "name": "whenTxRedeemable",
          "type": "uint256"
        },
        {
          "name": "whenTxExpires",
          "type": "uint256"
        }
      ],
      "payable": false,
      "stateMutability": "view",
      "type": "function"
    },
    {
      "constant": false,
      "inputs": [
        {
          "name": "newOwner",
          "type": "address"
        }
      ],
      "name": "transferOwnership",
      "outputs": [],
      "payable": false,
      "stateMutability": "nonpayable",
      "type": "function"
    },
    {
      "inputs": [
        {
          "name": "initialFlatFee",
          "type": "uint256"
        }
      ],
      "payable": false,
      "stateMutability": "nonpayable",
      "type": "constructor"
    },
    {
      "anonymous": false,
      "inputs": [
        {
          "indexed": false,
          "name": "whoChanged",
          "type": "address"
        },
        {
          "indexed": false,
          "name": "newFeeAmount",
          "type": "uint256"
        }
      ],
      "name": "LogChangedFeeAmount",
      "type": "event"
    },
    {
      "anonymous": false,
      "inputs": [
        {
          "indexed": false,
          "name": "whoSent",
          "type": "address"
        },
        {
          "indexed": false,
          "name": "whatValue",
          "type": "uint256"
        },
        {
          "indexed": false,
          "name": "whatFee",
          "type": "uint256"
        },
        {
          "indexed": false,
          "name": "allowedIntermediary",
          "type": "address"
        }
      ],
      "name": "LogCreatedRemittanceTx",
      "type": "event"
    },
    {
      "anonymous": false,
      "inputs": [
        {
          "indexed": false,
          "name": "whoExecutedRefund",
          "type": "address"
        },
        {
          "indexed": false,
          "name": "whereRefundWasSent",
          "type": "address"
        },
        {
          "indexed": false,
          "name": "howMuchRefunded",
          "type": "uint256"
        }
      ],
      "name": "LogRemittanceRefunded",
      "type": "event"
    },
    {
      "anonymous": false,
      "inputs": [
        {
          "indexed": false,
          "name": "whoCompletedRemittance",
          "type": "address"
        },
        {
          "indexed": false,
          "name": "feeAmount",
          "type": "uint256"
        },
        {
          "indexed": false,
          "name": "deliveredAmount",
          "type": "uint256"
        }
      ],
      "name": "LogRemittanceCompleted",
      "type": "event"
    },
    {
      "anonymous": false,
      "inputs": [
        {
          "indexed": false,
          "name": "amount",
          "type": "uint256"
        }
      ],
      "name": "LogLockedBalance",
      "type": "event"
    },
    {
      "anonymous": false,
      "inputs": [
        {
          "indexed": false,
          "name": "amount",
          "type": "uint256"
        }
      ],
      "name": "LogUnlockedBalance",
      "type": "event"
    },
    {
      "anonymous": false,
      "inputs": [
        {
          "indexed": false,
          "name": "whoWithdrew",
          "type": "address"
        },
        {
          "indexed": false,
          "name": "withdrewToAddress",
          "type": "address"
        },
        {
          "indexed": false,
          "name": "amount",
          "type": "uint256"
        }
      ],
      "name": "LogWithdrawFromUnlockedBalance",
      "type": "event"
    },
    {
      "anonymous": false,
      "inputs": [
        {
          "indexed": true,
          "name": "whoChanged",
          "type": "address"
        },
        {
          "indexed": false,
          "name": "pauseLevel",
          "type": "uint8"
        }
      ],
      "name": "PauseLevelChanged",
      "type": "event"
    },
    {
      "anonymous": false,
      "inputs": [
        {
          "indexed": true,
          "name": "previousOwner",
          "type": "address"
        },
        {
          "indexed": true,
          "name": "newOwner",
          "type": "address"
        }
      ],
      "name": "OwnershipTransferred",
      "type": "event"
    },
    {
      "constant": false,
      "inputs": [
        {
          "name": "newFeeAmount",
          "type": "uint256"
        }
      ],
      "name": "changeFeeAmount",
      "outputs": [],
      "payable": false,
      "stateMutability": "nonpayable",
      "type": "function"
    },
    {
      "constant": false,
      "inputs": [
        {
          "name": "dblHashedSecret1",
          "type": "bytes32"
        },
        {
          "name": "dblHashedSecret2",
          "type": "bytes32"
        },
        {
          "name": "allowedIntermediary",
          "type": "address"
        },
        {
          "name": "txRedeemableTime",
          "type": "uint256"
        },
        {
          "name": "txExpirationTime",
          "type": "uint256"
        }
      ],
      "name": "createNewRemittanceTx",
      "outputs": [
        {
          "name": "",
          "type": "uint256"
        }
      ],
      "payable": true,
      "stateMutability": "payable",
      "type": "function"
    },
    {
      "constant": false,
      "inputs": [
        {
          "name": "remittanceId",
          "type": "uint256"
        }
      ],
      "name": "refundExpiredRemittanceTx",
      "outputs": [],
      "payable": false,
      "stateMutability": "nonpayable",
      "type": "function"
    },
    {
      "constant": false,
      "inputs": [
        {
          "name": "remittanceId",
          "type": "uint256"
        },
        {
          "name": "hashedSecret1",
          "type": "bytes32"
        },
        {
          "name": "hashedSecret2",
          "type": "bytes32"
        }
      ],
      "name": "completeRemittanceTx",
      "outputs": [],
      "payable": false,
      "stateMutability": "nonpayable",
      "type": "function"
    },
    {
      "constant": false,
      "inputs": [
        {
          "name": "remittanceId",
          "type": "uint256"
        },
        {
          "name": "newAllowedIntermediary",
          "type": "address"
        }
      ],
      "name": "changeAllowedIntermediary",
      "outputs": [],
      "payable": false,
      "stateMutability": "nonpayable",
      "type": "function"
    },
    {
      "constant": false,
      "inputs": [
        {
          "name": "amountRequested",
          "type": "uint256"
        },
        {
          "name": "whereTo",
          "type": "address"
        }
      ],
      "name": "withdrawFromUnlockedBalance",
      "outputs": [],
      "payable": false,
      "stateMutability": "nonpayable",
      "type": "function"
    }
  ],
  "bytecode": "0x608060405234801561001057600080fd5b506040516020806124208339810180604052602081101561003057600080fd5b8101908080519060200190929190505050336000806101000a81548173ffffffffffffffffffffffffffffffffffffffff021916908373ffffffffffffffffffffffffffffffffffffffff1602179055506000809054906101000a900473ffffffffffffffffffffffffffffffffffffffff1673ffffffffffffffffffffffffffffffffffffffff16600073ffffffffffffffffffffffffffffffffffffffff167f8be0079c531659141344cd1fd0a4f28419497f9722a3daafe3b4186f6b6457e060405160405180910390a360008060146101000a81548160ff0219169083600281111561011b57fe5b02179055503373ffffffffffffffffffffffffffffffffffffffff167f583c435c465a768c2992e3d30c8d172a9543ffa7151b785c39e00f0468bc4a2c600060149054906101000a900460ff166040518082600281111561017857fe5b60ff16815260200191505060405180910390a262093a8060048190555062127500600581905550806002819055505061226a806101b66000396000f3fe608060405260043610610110576000357c0100000000000000000000000000000000000000000000000000000000900480637b80889b116100a75780638f32d59b116100765780638f32d59b1461043f5780639c922d2a1461046e578063c482c5df14610546578063f2fde38b146105a157610110565b80637b80889b146103305780637e55a79c1461035b5780638b2bbdd4146103aa5780638da5cb5b146103e857610110565b806357d4fcdc116100e357806357d4fcdc1461024a5780635c1245ad146102a557806364fa2402146102de578063715018a61461031957610110565b8063106c1c1d14610115578063115ae9261461014057806319fabe65146101c05780632f3765861461020f575b600080fd5b34801561012157600080fd5b5061012a6105f2565b6040518082815260200191505060405180910390f35b6101aa600480360360a081101561015657600080fd5b810190808035906020019092919080359060200190929190803573ffffffffffffffffffffffffffffffffffffffff16906020019092919080359060200190929190803590602001909291905050506105f8565b6040518082815260200191505060405180910390f35b3480156101cc57600080fd5b5061020d600480360360608110156101e357600080fd5b81019080803590602001909291908035906020019092919080359060200190929190505050610a4e565b005b34801561021b57600080fd5b506102486004803603602081101561023257600080fd5b8101908080359060200190929190505050610efd565b005b34801561025657600080fd5b506102a36004803603604081101561026d57600080fd5b8101908080359060200190929190803573ffffffffffffffffffffffffffffffffffffffff16906020019092919050505061104d565b005b3480156102b157600080fd5b506102ba61128c565b604051808260028111156102ca57fe5b60ff16815260200191505060405180910390f35b3480156102ea57600080fd5b506103176004803603602081101561030157600080fd5b810190808035906020019092919050505061129f565b005b34801561032557600080fd5b5061032e61159f565b005b34801561033c57600080fd5b50610345611683565b6040518082815260200191505060405180910390f35b34801561036757600080fd5b506103946004803603602081101561037e57600080fd5b8101908080359060200190929190505050611689565b6040518082815260200191505060405180910390f35b3480156103b657600080fd5b506103e6600480360360208110156103cd57600080fd5b81019080803560ff1690602001909291905050506116a1565b005b3480156103f457600080fd5b506103fd611780565b604051808273ffffffffffffffffffffffffffffffffffffffff1673ffffffffffffffffffffffffffffffffffffffff16815260200191505060405180910390f35b34801561044b57600080fd5b506104546117a9565b604051808215151515815260200191505060405180910390f35b34801561047a57600080fd5b506104a76004803603602081101561049157600080fd5b8101908080359060200190929190505050611800565b604051808981526020018881526020018773ffffffffffffffffffffffffffffffffffffffff1673ffffffffffffffffffffffffffffffffffffffff1681526020018673ffffffffffffffffffffffffffffffffffffffff1673ffffffffffffffffffffffffffffffffffffffff1681526020018581526020018481526020018381526020018281526020019850505050505050505060405180910390f35b34801561055257600080fd5b5061059f6004803603604081101561056957600080fd5b8101908080359060200190929190803573ffffffffffffffffffffffffffffffffffffffff169060200190929190505050611888565b005b3480156105ad57600080fd5b506105f0600480360360208110156105c457600080fd5b81019080803573ffffffffffffffffffffffffffffffffffffffff169060200190929190505050611a14565b005b60025481565b60006001600281111561060757fe5b600060149054906101000a900460ff16600281111561062257fe5b10610678576040517f08c379a000000000000000000000000000000000000000000000000000000000815260040180806020018281038252603981526020018061215b6039913960400191505060405180910390fd5b60025434116106d2576040517f08c379a000000000000000000000000000000000000000000000000000000000815260040180806020018281038252602f815260200180612048602f913960400191505060405180910390fd5b82821161072a576040517f08c379a0000000000000000000000000000000000000000000000000000000008152600401808060200182810382526033815260200180611fba6033913960400191505060405180910390fd5b428211610782576040517f08c379a00000000000000000000000000000000000000000000000000000000081526004018080602001828103825260268152602001806120226026913960400191505060405180910390fd5b61079760045442611afa90919063ffffffff16565b83106107ee576040517f08c379a00000000000000000000000000000000000000000000000000000000081526004018080602001828103825260298152602001806121946029913960400191505060405180910390fd5b61080360055442611afa90919063ffffffff16565b821061085a576040517f08c379a00000000000000000000000000000000000000000000000000000000081526004018080602001828103825260298152602001806121df6029913960400191505060405180910390fd5b6000338787604051602001808473ffffffffffffffffffffffffffffffffffffffff1673ffffffffffffffffffffffffffffffffffffffff166c0100000000000000000000000002815260140183815260200182815260200193505050506040516020818303038152906040528051906020012090506000600660008381526020019081526020016000209050816007600060015481526020019081526020016000208190555061091660018054611afa90919063ffffffff16565b6001819055503481600001819055506002548160010181905550338160020160006101000a81548173ffffffffffffffffffffffffffffffffffffffff021916908373ffffffffffffffffffffffffffffffffffffffff160217905550858160030160006101000a81548173ffffffffffffffffffffffffffffffffffffffff021916908373ffffffffffffffffffffffffffffffffffffffff1602179055508781600401819055508681600501819055508481600601819055508381600701819055507fc4d42a00cba1480ef0a3a68214c972934b16e30ab058f7752c802e7d7bbf495b346040518082815260200191505060405180910390a1610a2634600354611afa90919063ffffffff16565b600381905550610a4160018054611b1990919063ffffffff16565b9250505095945050505050565b60016002811115610a5b57fe5b600060149054906101000a900460ff166002811115610a7657fe5b10610acc576040517f08c379a000000000000000000000000000000000000000000000000000000000815260040180806020018281038252603981526020018061215b6039913960400191505060405180910390fd5b610ad4611f42565b610add84611b39565b90506000816000015111610b59576040517f08c379a000000000000000000000000000000000000000000000000000000000815260040180806020018281038252601d8152602001807f5472616e73616374696f6e206861732061207a65726f2d76616c75652e00000081525060200191505060405180910390fd5b428160c0015110610bb5576040517f08c379a00000000000000000000000000000000000000000000000000000000081526004018080602001828103825260228152602001806121bd6022913960400191505060405180910390fd5b600083604051602001808281526020019150506040516020818303038152906040528051906020012090506000836040516020018082815260200191505060405160208183030381529060405280519060200120905081836080015114610c84576040517f08c379a00000000000000000000000000000000000000000000000000000000081526004018080602001828103825260118152602001807f53656372657431206d69736d617463682e00000000000000000000000000000081525060200191505060405180910390fd5b808360a0015114610cfd576040517f08c379a00000000000000000000000000000000000000000000000000000000081526004018080602001828103825260118152602001807f53656372657432206d69736d617463682e00000000000000000000000000000081525060200191505060405180910390fd5b7f8ce4e1925163a0cc18b118ed0e32fb22586427b41e06d4e430a7b61db2c2590183600001516040518082815260200191505060405180910390a17f7967cf8c2a58f0f4af6cb16c4e0e1ed5be9bcfe686b2942bbd050e7db60c6e60338460200151610d7a86602001518760000151611b1990919063ffffffff16565b604051808473ffffffffffffffffffffffffffffffffffffffff1673ffffffffffffffffffffffffffffffffffffffff168152602001838152602001828152602001935050505060405180910390a1600660006007600089815260200190815260200160002054815260200190815260200160002060008082016000905560018201600090556002820160006101000a81549073ffffffffffffffffffffffffffffffffffffffff02191690556003820160006101000a81549073ffffffffffffffffffffffffffffffffffffffff0219169055600482016000905560058201600090556006820160009055600782016000905550506007600087815260200190815260200160002060009055610ea08360000151600354611b1990919063ffffffff16565b600381905550826060015173ffffffffffffffffffffffffffffffffffffffff166108fc84600001519081150290604051600060405180830381858888f19350505050158015610ef4573d6000803e3d6000fd5b50505050505050565b610f056117a9565b610f5a576040517f08c379a000000000000000000000000000000000000000000000000000000000815260040180806020018281038252603f815260200180612077603f913960400191505060405180910390fd5b60016002811115610f6757fe5b600060149054906101000a900460ff166002811115610f8257fe5b10610fd8576040517f08c379a000000000000000000000000000000000000000000000000000000000815260040180806020018281038252603981526020018061215b6039913960400191505060405180910390fd5b7fcd36e7cece50c8960670c01aa0fe0cc41d985826b35ec428f3c37db192cf42093382604051808373ffffffffffffffffffffffffffffffffffffffff1673ffffffffffffffffffffffffffffffffffffffff1681526020018281526020019250505060405180910390a18060028190555050565b6110556117a9565b6110aa576040517f08c379a000000000000000000000000000000000000000000000000000000000815260040180806020018281038252603f815260200180612077603f913960400191505060405180910390fd5b600160028111156110b757fe5b600060149054906101000a900460ff1660028111156110d257fe5b10611128576040517f08c379a000000000000000000000000000000000000000000000000000000000815260040180806020018281038252603981526020018061215b6039913960400191505060405180910390fd5b60006003543073ffffffffffffffffffffffffffffffffffffffff1631039050808311156111a1576040517f08c379a000000000000000000000000000000000000000000000000000000000815260040180806020018281038252603c8152602001806120e1603c913960400191505060405180910390fd5b7f74562bde44023bf38d61ca3610c26fa85e402d995fabe78673e5b16e242876be338385604051808473ffffffffffffffffffffffffffffffffffffffff1673ffffffffffffffffffffffffffffffffffffffff1681526020018373ffffffffffffffffffffffffffffffffffffffff1673ffffffffffffffffffffffffffffffffffffffff168152602001828152602001935050505060405180910390a18173ffffffffffffffffffffffffffffffffffffffff166108fc849081150290604051600060405180830381858888f19350505050158015611286573d6000803e3d6000fd5b50505050565b600060149054906101000a900460ff1681565b600160028111156112ac57fe5b600060149054906101000a900460ff1660028111156112c757fe5b1061131d576040517f08c379a000000000000000000000000000000000000000000000000000000000815260040180806020018281038252603981526020018061215b6039913960400191505060405180910390fd5b611325611f42565b61132e82611b39565b90508060e0015142101561138d576040517f08c379a00000000000000000000000000000000000000000000000000000000081526004018080602001828103825260378152602001806122086037913960400191505060405180910390fd5b7f51cf3c99f61c87510214c933c591e75694896fe4fc27a07cc76f364b183235d23382604001518360000151604051808473ffffffffffffffffffffffffffffffffffffffff1673ffffffffffffffffffffffffffffffffffffffff1681526020018373ffffffffffffffffffffffffffffffffffffffff1673ffffffffffffffffffffffffffffffffffffffff168152602001828152602001935050505060405180910390a17f8ce4e1925163a0cc18b118ed0e32fb22586427b41e06d4e430a7b61db2c2590181600001516040518082815260200191505060405180910390a1600660006007600085815260200190815260200160002054815260200190815260200160002060008082016000905560018201600090556002820160006101000a81549073ffffffffffffffffffffffffffffffffffffffff02191690556003820160006101000a81549073ffffffffffffffffffffffffffffffffffffffff02191690556004820160009055600582016000905560068201600090556007820160009055505060076000838152602001908152602001600020600090556115468160000151600354611b1990919063ffffffff16565b600381905550806040015173ffffffffffffffffffffffffffffffffffffffff166108fc82600001519081150290604051600060405180830381858888f1935050505015801561159a573d6000803e3d6000fd5b505050565b6115a76117a9565b6115fc576040517f08c379a000000000000000000000000000000000000000000000000000000000815260040180806020018281038252603f815260200180612077603f913960400191505060405180910390fd5b60028081111561160857fe5b600060149054906101000a900460ff16600281111561162357fe5b10611679576040517f08c379a000000000000000000000000000000000000000000000000000000000815260040180806020018281038252603e81526020018061211d603e913960400191505060405180910390fd5b611681611cc5565b565b60035481565b60076020528060005260406000206000915090505481565b6116a96117a9565b6116fe576040517f08c379a000000000000000000000000000000000000000000000000000000000815260040180806020018281038252603f815260200180612077603f913960400191505060405180910390fd5b3373ffffffffffffffffffffffffffffffffffffffff167f583c435c465a768c2992e3d30c8d172a9543ffa7151b785c39e00f0468bc4a2c826040518082600281111561174757fe5b60ff16815260200191505060405180910390a280600060146101000a81548160ff0219169083600281111561177857fe5b021790555050565b60008060009054906101000a900473ffffffffffffffffffffffffffffffffffffffff16905090565b60008060009054906101000a900473ffffffffffffffffffffffffffffffffffffffff1673ffffffffffffffffffffffffffffffffffffffff163373ffffffffffffffffffffffffffffffffffffffff1614905090565b60066020528060005260406000206000915090508060000154908060010154908060020160009054906101000a900473ffffffffffffffffffffffffffffffffffffffff16908060030160009054906101000a900473ffffffffffffffffffffffffffffffffffffffff16908060040154908060050154908060060154908060070154905088565b6001600281111561189557fe5b600060149054906101000a900460ff1660028111156118b057fe5b10611906576040517f08c379a000000000000000000000000000000000000000000000000000000000815260040180806020018281038252603981526020018061215b6039913960400191505060405180910390fd5b61190e611f42565b61191783611b39565b9050806040015173ffffffffffffffffffffffffffffffffffffffff163373ffffffffffffffffffffffffffffffffffffffff16146119a1576040517f08c379a0000000000000000000000000000000000000000000000000000000008152600401808060200182810382526035815260200180611fed6035913960400191505060405180910390fd5b600060066000600760008781526020019081526020016000205481526020019081526020016000209050828160030160006101000a81548173ffffffffffffffffffffffffffffffffffffffff021916908373ffffffffffffffffffffffffffffffffffffffff16021790555050505050565b611a1c6117a9565b611a71576040517f08c379a000000000000000000000000000000000000000000000000000000000815260040180806020018281038252603f815260200180612077603f913960400191505060405180910390fd5b600280811115611a7d57fe5b600060149054906101000a900460ff166002811115611a9857fe5b10611aee576040517f08c379a000000000000000000000000000000000000000000000000000000000815260040180806020018281038252603e81526020018061211d603e913960400191505060405180910390fd5b611af781611de1565b50565b600080828401905083811015611b0f57600080fd5b8091505092915050565b600082821115611b2857600080fd5b600082840390508091505092915050565b611b41611f42565b6000600760008481526020019081526020016000205490506000600102811415611bb6576040517f08c379a000000000000000000000000000000000000000000000000000000000815260040180806020018281038252602b8152602001806120b6602b913960400191505060405180910390fd5b600660008281526020019081526020016000206040518061010001604052908160008201548152602001600182015481526020016002820160009054906101000a900473ffffffffffffffffffffffffffffffffffffffff1673ffffffffffffffffffffffffffffffffffffffff1673ffffffffffffffffffffffffffffffffffffffff1681526020016003820160009054906101000a900473ffffffffffffffffffffffffffffffffffffffff1673ffffffffffffffffffffffffffffffffffffffff1673ffffffffffffffffffffffffffffffffffffffff168152602001600482015481526020016005820154815260200160068201548152602001600782015481525050915050919050565b611ccd6117a9565b611d22576040517f08c379a000000000000000000000000000000000000000000000000000000000815260040180806020018281038252603f815260200180612077603f913960400191505060405180910390fd5b600073ffffffffffffffffffffffffffffffffffffffff166000809054906101000a900473ffffffffffffffffffffffffffffffffffffffff1673ffffffffffffffffffffffffffffffffffffffff167f8be0079c531659141344cd1fd0a4f28419497f9722a3daafe3b4186f6b6457e060405160405180910390a360008060006101000a81548173ffffffffffffffffffffffffffffffffffffffff021916908373ffffffffffffffffffffffffffffffffffffffff160217905550565b611de96117a9565b611e3e576040517f08c379a000000000000000000000000000000000000000000000000000000000815260040180806020018281038252603f815260200180612077603f913960400191505060405180910390fd5b611e4781611e4a565b50565b600073ffffffffffffffffffffffffffffffffffffffff168173ffffffffffffffffffffffffffffffffffffffff161415611e8457600080fd5b8073ffffffffffffffffffffffffffffffffffffffff166000809054906101000a900473ffffffffffffffffffffffffffffffffffffffff1673ffffffffffffffffffffffffffffffffffffffff167f8be0079c531659141344cd1fd0a4f28419497f9722a3daafe3b4186f6b6457e060405160405180910390a3806000806101000a81548173ffffffffffffffffffffffffffffffffffffffff021916908373ffffffffffffffffffffffffffffffffffffffff16021790555050565b6040518061010001604052806000815260200160008152602001600073ffffffffffffffffffffffffffffffffffffffff168152602001600073ffffffffffffffffffffffffffffffffffffffff16815260200160008019168152602001600080191681526020016000815260200160008152509056fe52656d697474616e6365547820776f756c6420657870697265206265666f7265206974207761732072656465656d61626c652e4f6e6c792072656d697474616e63652073656e6465722063616e206368616e67652072656d697474616e63652068616e646c65722e45787069726174696f6e2074696d652063616e6e6f7420626520696e2074686520706173742e596f75206d7573742073656e64206174206c65617374206d6f7265206574686572207468616e20746865206665652e4f776e61626c652c2033333a204f6e6c792074686520636f6e7472616374206f776e65722063616e20706572666f726d20746869732061637469766974792e4e6f206f75747374616e64696e67207472616e73616374696f6e206d6174636865732064657461696c732e52657175657374656420746f207769746864726177206d6f7265207468616e20697320617661696c61626c6520666f72207769746864726177616c2e5061757361626c652c2032333a2043616e206f6e6c79206578656375746520696620636f6e7472616374206973206e6f7420686172642d7061757365642e5061757361626c652c2032383a2043616e206f6e6c79206578656375746520696620636f6e7472616374206973206e6f74207061757365642e52656465656d61626c652074696d6520697320746f6f2066617220696e20746865206675747572652e5472616e73616374696f6e206973206e6f74207965742072656465656d61626c652e45787069726174696f6e2074696d6520697320746f6f2066617220696e20746865206675747572652e5472616e73616374696f6e20686173206e6f742079657420657870697265642e20496e656c696761626c6520666f7220726566756e642ea165627a7a7230582076787d277859833435b459b990ce77b4beb6d2cff1b52ae77dd94ad28f0a038e0029",
  "source": "pragma solidity ^0.5.7;\n\nimport \"./OwnablePausable.sol\";\nimport \"./SafeMath.sol\";\n\ncontract Remittance is OwnablePausable {\n\n    using SafeMath for uint;\n\n    uint idCount;\n    uint public currentFlatFee;\n    uint public lockedBalance;\n    uint internal _maxFutureTime;\n    uint internal _maxExpiresTime;\n\n    struct RemittanceTx {\n\n        // keep track of the amount that was sent\n        uint sentAmount;\n\n        // fee user will pay to facilitate the remittance\n        uint feeAmount;\n\n        // keep track of sending party in case of refund\n        address payable sendingParty;\n\n        // keep track of address allowed to execute a transaction (otherwise front-running possible)\n        address payable allowedIntermediary;\n\n        // users will need to provide some strings that hash to these values\n        bytes32 authorizationDblHash1;\n        bytes32 authorizationDblHash2;\n\n        // time limits and expirations\n        uint whenTxRedeemable;\n        uint whenTxExpires;\n    }\n\n    mapping (bytes32 => RemittanceTx) public remittances;\n    mapping (uint => bytes32) public remittanceIdsToHashes;\n\n    event LogChangedFeeAmount(address whoChanged, uint newFeeAmount);\n    event LogCreatedRemittanceTx(address whoSent, uint whatValue, uint whatFee, address allowedIntermediary);\n    event LogRemittanceRefunded(address whoExecutedRefund, address whereRefundWasSent, uint howMuchRefunded);\n    event LogRemittanceCompleted(address whoCompletedRemittance, uint feeAmount, uint deliveredAmount);\n    event LogLockedBalance(uint amount);\n    event LogUnlockedBalance(uint amount);\n    event LogWithdrawFromUnlockedBalance(address whoWithdrew, address withdrewToAddress, uint amount);\n\n    // will add user adjustable valid-after and expiration times in next iteration\n    constructor(uint initialFlatFee) public {\n\n        _maxFutureTime = 60 * 60 * 24 * 7; // can only be one week into the future\n        _maxExpiresTime = 60 * 60 * 24 * 14; // can only expire up to two weeks in the future\n\n        currentFlatFee = initialFlatFee;\n\n    }\n\n    function changeFeeAmount(uint newFeeAmount) public onlyOwner softPausable {\n\n        emit LogChangedFeeAmount(msg.sender, newFeeAmount);\n        currentFlatFee = newFeeAmount;\n\n    }\n\n    function createNewRemittanceTx(\n        bytes32 dblHashedSecret1,\n        bytes32 dblHashedSecret2,\n        address payable allowedIntermediary,\n        uint txRedeemableTime,\n        uint txExpirationTime\n        )\n        public softPausable payable returns(uint){\n\n            require(msg.value > currentFlatFee, \"You must send at least more ether than the fee.\");\n\n            // block timestamps seem reasonable where +- 30 seconds won't interfere with the intention of the user\n            require(txExpirationTime > txRedeemableTime, \"RemittanceTx would expire before it was redeemable.\");\n            require(txExpirationTime > block.timestamp, \"Expiration time cannot be in the past.\");\n            require(txRedeemableTime < block.timestamp.add(_maxFutureTime), \"Redeemable time is too far in the future.\");\n            require(txExpirationTime < block.timestamp.add(_maxExpiresTime), \"Expiration time is too far in the future.\");\n\n            bytes32 remittanceIdHash = keccak256(abi.encodePacked(msg.sender, dblHashedSecret1, dblHashedSecret2));\n            RemittanceTx storage newRemittance = remittances[remittanceIdHash];\n\n            remittanceIdsToHashes[idCount] = remittanceIdHash;\n            idCount = idCount.add(1);\n\n            newRemittance.sentAmount = msg.value;\n            newRemittance.feeAmount = currentFlatFee;\n            newRemittance.sendingParty = msg.sender;\n            newRemittance.allowedIntermediary = allowedIntermediary;\n            newRemittance.authorizationDblHash1 = dblHashedSecret1;\n            newRemittance.authorizationDblHash2 = dblHashedSecret2;\n            newRemittance.whenTxRedeemable = txRedeemableTime;\n            newRemittance.whenTxExpires = txExpirationTime;\n\n            emit LogLockedBalance(msg.value);\n            lockedBalance = lockedBalance.add(msg.value);\n\n            return idCount.sub(1);\n    }\n\n    function getRemittanceTxFromId(uint remittanceId) internal view returns(RemittanceTx memory){\n        bytes32 remittanceHashId = remittanceIdsToHashes[remittanceId];\n        require(remittanceHashId != 0x0, \"No outstanding transaction matches details.\");\n\n        return remittances[remittanceHashId];\n    }\n\n    function refundExpiredRemittanceTx(uint remittanceId) public softPausable {\n\n        RemittanceTx memory aRemittance = getRemittanceTxFromId(remittanceId);\n\n        require(block.timestamp >= aRemittance.whenTxExpires, \"Transaction has not yet expired. Ineligable for refund.\");\n\n        emit LogRemittanceRefunded(msg.sender, aRemittance.sendingParty, aRemittance.sentAmount);\n        emit LogUnlockedBalance(aRemittance.sentAmount);\n\n         // remove the outstanding transaction\n        delete(remittances[remittanceIdsToHashes[remittanceId]]);\n        delete(remittanceIdsToHashes[remittanceId]);\n\n        // and update the locked balance\n        lockedBalance = lockedBalance.sub(aRemittance.sentAmount);\n\n        // refund the transaction to original sender\n        aRemittance.sendingParty.transfer(aRemittance.sentAmount);\n    }\n\n    function completeRemittanceTx(uint remittanceId, bytes32 hashedSecret1, bytes32 hashedSecret2) public softPausable {\n\n        RemittanceTx memory aRemittance = getRemittanceTxFromId(remittanceId);\n\n        require(aRemittance.sentAmount > 0, \"Transaction has a zero-value.\");\n        require(aRemittance.whenTxRedeemable < block.timestamp, \"Transaction is not yet redeemable.\");\n\n        bytes32 dblHashedSecret1 = keccak256(abi.encodePacked(hashedSecret1));\n        bytes32 dblHashedSecret2 = keccak256(abi.encodePacked(hashedSecret2));\n        require(aRemittance.authorizationDblHash1 == dblHashedSecret1, \"Secret1 mismatch.\");\n        require(aRemittance.authorizationDblHash2 == dblHashedSecret2, \"Secret2 mismatch.\");\n\n        emit LogUnlockedBalance(aRemittance.sentAmount);\n        emit LogRemittanceCompleted(msg.sender, aRemittance.feeAmount, aRemittance.sentAmount.sub(aRemittance.feeAmount));\n\n         // remove the outstanding transaction\n        delete(remittances[remittanceIdsToHashes[remittanceId]]);\n        delete(remittanceIdsToHashes[remittanceId]);\n\n        // and update the locked balance\n        lockedBalance = lockedBalance.sub(aRemittance.sentAmount);\n\n        // send amount to handler\n        aRemittance.allowedIntermediary.transfer(aRemittance.sentAmount);\n    }\n\n    function changeAllowedIntermediary(uint remittanceId, address payable newAllowedIntermediary) public softPausable {\n\n        RemittanceTx memory aRemittance = getRemittanceTxFromId(remittanceId);\n\n        require(msg.sender == aRemittance.sendingParty, \"Only remittance sender can change remittance handler.\");\n\n        RemittanceTx storage editableRemittance = remittances[remittanceIdsToHashes[remittanceId]];\n        editableRemittance.allowedIntermediary = newAllowedIntermediary;\n    }\n\n    function withdrawFromUnlockedBalance(uint amountRequested, address payable whereTo) public onlyOwner softPausable {\n\n        uint unlockedBalance = address(this).balance - lockedBalance;\n        require(amountRequested <= unlockedBalance, \"Requested to withdraw more than is available for withdrawal.\");\n\n        emit LogWithdrawFromUnlockedBalance(msg.sender, whereTo, amountRequested);\n        whereTo.transfer(amountRequested);\n    }\n\n}",
  "sourcePath": "/home/andrew/b9labs/dapps/remittance/contracts/Remittance.sol",
  "compiler": {
    "name": "solc",
    "version": "0.5.8+commit.23d335f2.Emscripten.clang"
  },
  "schemaVersion": "3.0.3",
  "updatedAt": "2019-05-05T20:32:57.953Z",
  "devdoc": {
    "methods": {
      "isOwner()": {
        "return": "true if `msg.sender` is the owner of the contract."
      },
      "owner()": {
        "return": "the address of the owner."
      }
    }
  },
  "userdoc": {
    "methods": {}
  }
}